{
  "transactions": [
    {
      "hash": "0x4c487dabbeff45f3f8e0af590e716bb93d2e2d1cb36325ea88ec3765599f709a",
      "transactionType": "CALL",
      "contractName": null,
      "contractAddress": "0x705f82bb431fada1a0f11d7b77b3f0586c545cbc",
      "function": "executeBatch(address[],uint256[],bytes[],bytes32,bytes32)",
      "arguments": [
        "[0x05dcdBF02F29239D1f8d9797E22589A2DE1C152F, 0x05dcdBF02F29239D1f8d9797E22589A2DE1C152F, 0x05dcdBF02F29239D1f8d9797E22589A2DE1C152F, 0x32fb7D6E0cBEb9433772689aA4647828Cc7cbBA8, 0x32fb7D6E0cBEb9433772689aA4647828Cc7cbBA8, 0x32fb7D6E0cBEb9433772689aA4647828Cc7cbBA8, 0x32fb7D6E0cBEb9433772689aA4647828Cc7cbBA8, 0x05dcdBF02F29239D1f8d9797E22589A2DE1C152F]",
        "[0, 0, 0, 0, 0, 0, 0, 0]",
        "[0x2f2ff15d8f4f2da22e8ac8f11e15f9fc141cddbb5deea8800186560abb6e68c5496619a9000000000000000000000000f96e4c5eee8095f918ed3312b3de3d68156798f8, 0x2f2ff15d8f4f2da22e8ac8f11e15f9fc141cddbb5deea8800186560abb6e68c5496619a9000000000000000000000000511ecc2baa35063315d75fcfd3754fd242ad8318, 0x272d177d00000000000000000000000097a597cbca514afcc29cd300f04f98d9dbaa3624000000000000000000000000000000000000000000000001325b63a9157a7bd8, 0xc746c8f40000000000000000000000004d840966887673132ec61ab4ffb5e3c26cb1f4bd, 0xc746c8f4000000000000000000000000511ecc2baa35063315d75fcfd3754fd242ad8318, 0xc746c8f400000000000000000000000056f847afcc2d28c582b5a5add3b85ceeebace2e5, 0xc746c8f40000000000000000000000009751e18dfb3ade991aac1dc71e62cf330f50a6af, 0x85d80bf000000000000000000000000097a597cbca514afcc29cd300f04f98d9dbaa362400000000000000000000000000000000000000000000000000b1a2bc2ec5000000000000000000000000000000000000000000000000000000000000000000000000000000000000000000000000000000000000000000000c7d713b49da000000000000000000000000000000000000000000000000000000b1a2bc2ec50000]",
        "0x0000000000000000000000000000000000000000000000000000000000000000",
        "0x0000000000000000000000000000000000000000000000000000000000000000"
      ],
      "transaction": {
        "from": "0x8842fe65a7db9bb5de6d50e49af19496da09f9b5",
        "to": "0x705f82bb431fada1a0f11d7b77b3f0586c545cbc",
        "gas": "0x8c2f1",
        "value": "0x0",
        "input": "0xe38335e500000000000000000000000000000000000000000000000000000000000000a000000000000000000000000000000000000000000000000000000000000001c000000000000000000000000000000000000000000000000000000000000002e000000000000000000000000000000000000000000000000000000000000000000000000000000000000000000000000000000000000000000000000000000000000000000000000000000000000000000000000000000000000000000000000800000000000000000000000005dcdbf02f29239d1f8d9797e22589a2de1c152f00000000000000000000000005dcdbf02f29239d1f8d9797e22589a2de1c152f00000000000000000000000005dcdbf02f29239d1f8d9797e22589a2de1c152f00000000000000000000000032fb7d6e0cbeb9433772689aa4647828cc7cbba800000000000000000000000032fb7d6e0cbeb9433772689aa4647828cc7cbba800000000000000000000000032fb7d6e0cbeb9433772689aa4647828cc7cbba800000000000000000000000032fb7d6e0cbeb9433772689aa4647828cc7cbba800000000000000000000000005dcdbf02f29239d1f8d9797e22589a2de1c152f0000000000000000000000000000000000000000000000000000000000000008000000000000000000000000000000000000000000000000000000000000000000000000000000000000000000000000000000000000000000000000000000000000000000000000000000000000000000000000000000000000000000000000000000000000000000000000000000000000000000000000000000000000000000000000000000000000000000000000000000000000000000000000000000000000000000000000000000000000000000000000000000000000000000000000000000000000000000000000000000000000000000000000000000000000000000000000000000000000000000000000000000000000000000000000000000000000000000000000000000000000000000000000000000000000000000000008000000000000000000000000000000000000000000000000000000000000010000000000000000000000000000000000000000000000000000000000000001800000000000000000000000000000000000000000000000000000000000000200000000000000000000000000000000000000000000000000000000000000028000000000000000000000000000000000000000000000000000000000000002e0000000000000000000000000000000000000000000000000000000000000034000000000000000000000000000000000000000000000000000000000000003a0000000000000000000000000000000000000000000000000000000000000040000000000000000000000000000000000000000000000000000000000000000442f2ff15d8f4f2da22e8ac8f11e15f9fc141cddbb5deea8800186560abb6e68c5496619a9000000000000000000000000f96e4c5eee8095f918ed3312b3de3d68156798f80000000000000000000000000000000000000000000000000000000000000000000000000000000000000000000000000000000000000000000000442f2ff15d8f4f2da22e8ac8f11e15f9fc141cddbb5deea8800186560abb6e68c5496619a9000000000000000000000000511ecc2baa35063315d75fcfd3754fd242ad8318000000000000000000000000000000000000000000000000000000000000000000000000000000000000000000000000000000000000000000000044272d177d00000000000000000000000097a597cbca514afcc29cd300f04f98d9dbaa3624000000000000000000000000000000000000000000000001325b63a9157a7bd8000000000000000000000000000000000000000000000000000000000000000000000000000000000000000000000000000000000000000000000024c746c8f40000000000000000000000004d840966887673132ec61ab4ffb5e3c26cb1f4bd000000000000000000000000000000000000000000000000000000000000000000000000000000000000000000000000000000000000000000000024c746c8f4000000000000000000000000511ecc2baa35063315d75fcfd3754fd242ad8318000000000000000000000000000000000000000000000000000000000000000000000000000000000000000000000000000000000000000000000024c746c8f400000000000000000000000056f847afcc2d28c582b5a5add3b85ceeebace2e5000000000000000000000000000000000000000000000000000000000000000000000000000000000000000000000000000000000000000000000024c746c8f40000000000000000000000009751e18dfb3ade991aac1dc71e62cf330f50a6af0000000000000000000000000000000000000000000000000000000000000000000000000000000000000000000000000000000000000000000000a485d80bf000000000000000000000000097a597cbca514afcc29cd300f04f98d9dbaa362400000000000000000000000000000000000000000000000000b1a2bc2ec5000000000000000000000000000000000000000000000000000000000000000000000000000000000000000000000000000000000000000000000c7d713b49da000000000000000000000000000000000000000000000000000000b1a2bc2ec5000000000000000000000000000000000000000000000000000000000000",
        "nonce": "0xe2",
        "chainId": "0x1"
      },
      "additionalContracts": [],
      "isFixedGasLimit": false
    }
  ],
  "receipts": [
    {
      "status": "0x1",
      "cumulativeGasUsed": "0xf685b1",
      "logs": [
        {
          "address": "0x05dcdbf02f29239d1f8d9797e22589a2de1c152f",
          "topics": [
            "0x2f8788117e7eff1d82e926ec794901d17c78024a50270940304540a733656f0d",
            "0x8f4f2da22e8ac8f11e15f9fc141cddbb5deea8800186560abb6e68c5496619a9",
            "0x000000000000000000000000f96e4c5eee8095f918ed3312b3de3d68156798f8",
            "0x000000000000000000000000705f82bb431fada1a0f11d7b77b3f0586c545cbc"
          ],
          "data": "0x",
          "blockHash": "0xe3dd57dfb96eff4f293d6767e7c46cf793103b0711df353f1ddbb37fbd042dc4",
          "blockNumber": "0x1364916",
          "transactionHash": "0x4c487dabbeff45f3f8e0af590e716bb93d2e2d1cb36325ea88ec3765599f709a",
          "transactionIndex": "0xaa",
          "logIndex": "0x1b3",
          "removed": false
        },
        {
          "address": "0x705f82bb431fada1a0f11d7b77b3f0586c545cbc",
          "topics": [
            "0xc2617efa69bab66782fa219543714338489c4e9e178271560a91b82c3f612b58",
            "0xcfb793a07918271411f396303ff7085cce1cac79a317a51fe0f28767d0f9f950",
            "0x0000000000000000000000000000000000000000000000000000000000000000"
          ],
          "data": "0x00000000000000000000000005dcdbf02f29239d1f8d9797e22589a2de1c152f0000000000000000000000000000000000000000000000000000000000000000000000000000000000000000000000000000000000000000000000000000006000000000000000000000000000000000000000000000000000000000000000442f2ff15d8f4f2da22e8ac8f11e15f9fc141cddbb5deea8800186560abb6e68c5496619a9000000000000000000000000f96e4c5eee8095f918ed3312b3de3d68156798f800000000000000000000000000000000000000000000000000000000",
          "blockHash": "0xe3dd57dfb96eff4f293d6767e7c46cf793103b0711df353f1ddbb37fbd042dc4",
          "blockNumber": "0x1364916",
          "transactionHash": "0x4c487dabbeff45f3f8e0af590e716bb93d2e2d1cb36325ea88ec3765599f709a",
          "transactionIndex": "0xaa",
          "logIndex": "0x1b4",
          "removed": false
        },
        {
          "address": "0x05dcdbf02f29239d1f8d9797e22589a2de1c152f",
          "topics": [
            "0x2f8788117e7eff1d82e926ec794901d17c78024a50270940304540a733656f0d",
            "0x8f4f2da22e8ac8f11e15f9fc141cddbb5deea8800186560abb6e68c5496619a9",
            "0x000000000000000000000000511ecc2baa35063315d75fcfd3754fd242ad8318",
            "0x000000000000000000000000705f82bb431fada1a0f11d7b77b3f0586c545cbc"
          ],
          "data": "0x",
          "blockHash": "0xe3dd57dfb96eff4f293d6767e7c46cf793103b0711df353f1ddbb37fbd042dc4",
          "blockNumber": "0x1364916",
          "transactionHash": "0x4c487dabbeff45f3f8e0af590e716bb93d2e2d1cb36325ea88ec3765599f709a",
          "transactionIndex": "0xaa",
          "logIndex": "0x1b5",
          "removed": false
        },
        {
          "address": "0x705f82bb431fada1a0f11d7b77b3f0586c545cbc",
          "topics": [
            "0xc2617efa69bab66782fa219543714338489c4e9e178271560a91b82c3f612b58",
            "0xcfb793a07918271411f396303ff7085cce1cac79a317a51fe0f28767d0f9f950",
            "0x0000000000000000000000000000000000000000000000000000000000000001"
          ],
          "data": "0x00000000000000000000000005dcdbf02f29239d1f8d9797e22589a2de1c152f0000000000000000000000000000000000000000000000000000000000000000000000000000000000000000000000000000000000000000000000000000006000000000000000000000000000000000000000000000000000000000000000442f2ff15d8f4f2da22e8ac8f11e15f9fc141cddbb5deea8800186560abb6e68c5496619a9000000000000000000000000511ecc2baa35063315d75fcfd3754fd242ad831800000000000000000000000000000000000000000000000000000000",
          "blockHash": "0xe3dd57dfb96eff4f293d6767e7c46cf793103b0711df353f1ddbb37fbd042dc4",
          "blockNumber": "0x1364916",
          "transactionHash": "0x4c487dabbeff45f3f8e0af590e716bb93d2e2d1cb36325ea88ec3765599f709a",
          "transactionIndex": "0xaa",
          "logIndex": "0x1b6",
          "removed": false
        },
        {
          "address": "0x05dcdbf02f29239d1f8d9797e22589a2de1c152f",
          "topics": [
            "0xb5d5d4292fe8559d190a7787f1cad866d9c72449e7acfcf016622126dbad0287",
            "0x00000000000000000000000097a597cbca514afcc29cd300f04f98d9dbaa3624"
          ],
          "data": "0x000000000000000000000000000000000000000000000001325b63a9157a7bd8",
          "blockHash": "0xe3dd57dfb96eff4f293d6767e7c46cf793103b0711df353f1ddbb37fbd042dc4",
          "blockNumber": "0x1364916",
          "transactionHash": "0x4c487dabbeff45f3f8e0af590e716bb93d2e2d1cb36325ea88ec3765599f709a",
          "transactionIndex": "0xaa",
          "logIndex": "0x1b7",
          "removed": false
        },
        {
          "address": "0x705f82bb431fada1a0f11d7b77b3f0586c545cbc",
          "topics": [
            "0xc2617efa69bab66782fa219543714338489c4e9e178271560a91b82c3f612b58",
            "0xcfb793a07918271411f396303ff7085cce1cac79a317a51fe0f28767d0f9f950",
            "0x0000000000000000000000000000000000000000000000000000000000000002"
          ],
          "data": "0x00000000000000000000000005dcdbf02f29239d1f8d9797e22589a2de1c152f000000000000000000000000000000000000000000000000000000000000000000000000000000000000000000000000000000000000000000000000000000600000000000000000000000000000000000000000000000000000000000000044272d177d00000000000000000000000097a597cbca514afcc29cd300f04f98d9dbaa3624000000000000000000000000000000000000000000000001325b63a9157a7bd800000000000000000000000000000000000000000000000000000000",
          "blockHash": "0xe3dd57dfb96eff4f293d6767e7c46cf793103b0711df353f1ddbb37fbd042dc4",
          "blockNumber": "0x1364916",
          "transactionHash": "0x4c487dabbeff45f3f8e0af590e716bb93d2e2d1cb36325ea88ec3765599f709a",
          "transactionIndex": "0xaa",
          "logIndex": "0x1b8",
          "removed": false
        },
        {
          "address": "0x32fb7d6e0cbeb9433772689aa4647828cc7cbba8",
          "topics": [
            "0xc8946e4496d773771e46710e288d3f07b42854c6bd52cd4626a08370ee392adf",
            "0x0000000000000000000000004d840966887673132ec61ab4ffb5e3c26cb1f4bd"
          ],
          "data": "0x000000000000000000000000000000000000000000000000000000000000002b",
          "blockHash": "0xe3dd57dfb96eff4f293d6767e7c46cf793103b0711df353f1ddbb37fbd042dc4",
          "blockNumber": "0x1364916",
          "transactionHash": "0x4c487dabbeff45f3f8e0af590e716bb93d2e2d1cb36325ea88ec3765599f709a",
          "transactionIndex": "0xaa",
          "logIndex": "0x1b9",
          "removed": false
        },
        {
          "address": "0x705f82bb431fada1a0f11d7b77b3f0586c545cbc",
          "topics": [
            "0xc2617efa69bab66782fa219543714338489c4e9e178271560a91b82c3f612b58",
            "0xcfb793a07918271411f396303ff7085cce1cac79a317a51fe0f28767d0f9f950",
            "0x0000000000000000000000000000000000000000000000000000000000000003"
          ],
          "data": "0x00000000000000000000000032fb7d6e0cbeb9433772689aa4647828cc7cbba8000000000000000000000000000000000000000000000000000000000000000000000000000000000000000000000000000000000000000000000000000000600000000000000000000000000000000000000000000000000000000000000024c746c8f40000000000000000000000004d840966887673132ec61ab4ffb5e3c26cb1f4bd00000000000000000000000000000000000000000000000000000000",
          "blockHash": "0xe3dd57dfb96eff4f293d6767e7c46cf793103b0711df353f1ddbb37fbd042dc4",
          "blockNumber": "0x1364916",
          "transactionHash": "0x4c487dabbeff45f3f8e0af590e716bb93d2e2d1cb36325ea88ec3765599f709a",
          "transactionIndex": "0xaa",
          "logIndex": "0x1ba",
          "removed": false
        },
        {
          "address": "0x32fb7d6e0cbeb9433772689aa4647828cc7cbba8",
          "topics": [
            "0xc8946e4496d773771e46710e288d3f07b42854c6bd52cd4626a08370ee392adf",
            "0x000000000000000000000000511ecc2baa35063315d75fcfd3754fd242ad8318"
          ],
          "data": "0x000000000000000000000000000000000000000000000000000000000000002c",
          "blockHash": "0xe3dd57dfb96eff4f293d6767e7c46cf793103b0711df353f1ddbb37fbd042dc4",
          "blockNumber": "0x1364916",
          "transactionHash": "0x4c487dabbeff45f3f8e0af590e716bb93d2e2d1cb36325ea88ec3765599f709a",
          "transactionIndex": "0xaa",
          "logIndex": "0x1bb",
          "removed": false
        },
        {
          "address": "0x705f82bb431fada1a0f11d7b77b3f0586c545cbc",
          "topics": [
            "0xc2617efa69bab66782fa219543714338489c4e9e178271560a91b82c3f612b58",
            "0xcfb793a07918271411f396303ff7085cce1cac79a317a51fe0f28767d0f9f950",
            "0x0000000000000000000000000000000000000000000000000000000000000004"
          ],
          "data": "0x00000000000000000000000032fb7d6e0cbeb9433772689aa4647828cc7cbba8000000000000000000000000000000000000000000000000000000000000000000000000000000000000000000000000000000000000000000000000000000600000000000000000000000000000000000000000000000000000000000000024c746c8f4000000000000000000000000511ecc2baa35063315d75fcfd3754fd242ad831800000000000000000000000000000000000000000000000000000000",
          "blockHash": "0xe3dd57dfb96eff4f293d6767e7c46cf793103b0711df353f1ddbb37fbd042dc4",
          "blockNumber": "0x1364916",
          "transactionHash": "0x4c487dabbeff45f3f8e0af590e716bb93d2e2d1cb36325ea88ec3765599f709a",
          "transactionIndex": "0xaa",
          "logIndex": "0x1bc",
          "removed": false
        },
        {
          "address": "0x32fb7d6e0cbeb9433772689aa4647828cc7cbba8",
          "topics": [
            "0xc8946e4496d773771e46710e288d3f07b42854c6bd52cd4626a08370ee392adf",
            "0x00000000000000000000000056f847afcc2d28c582b5a5add3b85ceeebace2e5"
          ],
          "data": "0x000000000000000000000000000000000000000000000000000000000000002d",
          "blockHash": "0xe3dd57dfb96eff4f293d6767e7c46cf793103b0711df353f1ddbb37fbd042dc4",
          "blockNumber": "0x1364916",
          "transactionHash": "0x4c487dabbeff45f3f8e0af590e716bb93d2e2d1cb36325ea88ec3765599f709a",
          "transactionIndex": "0xaa",
          "logIndex": "0x1bd",
          "removed": false
        },
        {
          "address": "0x705f82bb431fada1a0f11d7b77b3f0586c545cbc",
          "topics": [
            "0xc2617efa69bab66782fa219543714338489c4e9e178271560a91b82c3f612b58",
            "0xcfb793a07918271411f396303ff7085cce1cac79a317a51fe0f28767d0f9f950",
            "0x0000000000000000000000000000000000000000000000000000000000000005"
          ],
          "data": "0x00000000000000000000000032fb7d6e0cbeb9433772689aa4647828cc7cbba8000000000000000000000000000000000000000000000000000000000000000000000000000000000000000000000000000000000000000000000000000000600000000000000000000000000000000000000000000000000000000000000024c746c8f400000000000000000000000056f847afcc2d28c582b5a5add3b85ceeebace2e500000000000000000000000000000000000000000000000000000000",
          "blockHash": "0xe3dd57dfb96eff4f293d6767e7c46cf793103b0711df353f1ddbb37fbd042dc4",
          "blockNumber": "0x1364916",
          "transactionHash": "0x4c487dabbeff45f3f8e0af590e716bb93d2e2d1cb36325ea88ec3765599f709a",
          "transactionIndex": "0xaa",
          "logIndex": "0x1be",
          "removed": false
        },
        {
          "address": "0x32fb7d6e0cbeb9433772689aa4647828cc7cbba8",
          "topics": [
            "0xc8946e4496d773771e46710e288d3f07b42854c6bd52cd4626a08370ee392adf",
            "0x0000000000000000000000009751e18dfb3ade991aac1dc71e62cf330f50a6af"
          ],
          "data": "0x000000000000000000000000000000000000000000000000000000000000002e",
          "blockHash": "0xe3dd57dfb96eff4f293d6767e7c46cf793103b0711df353f1ddbb37fbd042dc4",
          "blockNumber": "0x1364916",
          "transactionHash": "0x4c487dabbeff45f3f8e0af590e716bb93d2e2d1cb36325ea88ec3765599f709a",
          "transactionIndex": "0xaa",
          "logIndex": "0x1bf",
          "removed": false
        },
        {
          "address": "0x705f82bb431fada1a0f11d7b77b3f0586c545cbc",
          "topics": [
            "0xc2617efa69bab66782fa219543714338489c4e9e178271560a91b82c3f612b58",
            "0xcfb793a07918271411f396303ff7085cce1cac79a317a51fe0f28767d0f9f950",
            "0x0000000000000000000000000000000000000000000000000000000000000006"
          ],
          "data": "0x00000000000000000000000032fb7d6e0cbeb9433772689aa4647828cc7cbba8000000000000000000000000000000000000000000000000000000000000000000000000000000000000000000000000000000000000000000000000000000600000000000000000000000000000000000000000000000000000000000000024c746c8f40000000000000000000000009751e18dfb3ade991aac1dc71e62cf330f50a6af00000000000000000000000000000000000000000000000000000000",
          "blockHash": "0xe3dd57dfb96eff4f293d6767e7c46cf793103b0711df353f1ddbb37fbd042dc4",
          "blockNumber": "0x1364916",
          "transactionHash": "0x4c487dabbeff45f3f8e0af590e716bb93d2e2d1cb36325ea88ec3765599f709a",
          "transactionIndex": "0xaa",
          "logIndex": "0x1c0",
          "removed": false
        },
        {
          "address": "0x05dcdbf02f29239d1f8d9797e22589a2de1c152f",
          "topics": [
            "0x9e004d58f4d32fd0cd93d5b88b447b18dbb8c9bdb33b84e00146dd6931843f25",
            "0x00000000000000000000000097a597cbca514afcc29cd300f04f98d9dbaa3624"
          ],
          "data": "0x00000000000000000000000000000000000000000000000000b1a2bc2ec5000000000000000000000000000000000000000000000000000000000000000000000000000000000000000000000000000000000000000000000c7d713b49da000000000000000000000000000000000000000000000000000000b1a2bc2ec50000",
          "blockHash": "0xe3dd57dfb96eff4f293d6767e7c46cf793103b0711df353f1ddbb37fbd042dc4",
          "blockNumber": "0x1364916",
          "transactionHash": "0x4c487dabbeff45f3f8e0af590e716bb93d2e2d1cb36325ea88ec3765599f709a",
          "transactionIndex": "0xaa",
          "logIndex": "0x1c1",
          "removed": false
        },
        {
          "address": "0x705f82bb431fada1a0f11d7b77b3f0586c545cbc",
          "topics": [
            "0xc2617efa69bab66782fa219543714338489c4e9e178271560a91b82c3f612b58",
            "0xcfb793a07918271411f396303ff7085cce1cac79a317a51fe0f28767d0f9f950",
            "0x0000000000000000000000000000000000000000000000000000000000000007"
          ],
          "data": "0x00000000000000000000000005dcdbf02f29239d1f8d9797e22589a2de1c152f0000000000000000000000000000000000000000000000000000000000000000000000000000000000000000000000000000000000000000000000000000006000000000000000000000000000000000000000000000000000000000000000a485d80bf000000000000000000000000097a597cbca514afcc29cd300f04f98d9dbaa362400000000000000000000000000000000000000000000000000b1a2bc2ec5000000000000000000000000000000000000000000000000000000000000000000000000000000000000000000000000000000000000000000000c7d713b49da000000000000000000000000000000000000000000000000000000b1a2bc2ec5000000000000000000000000000000000000000000000000000000000000",
          "blockHash": "0xe3dd57dfb96eff4f293d6767e7c46cf793103b0711df353f1ddbb37fbd042dc4",
          "blockNumber": "0x1364916",
          "transactionHash": "0x4c487dabbeff45f3f8e0af590e716bb93d2e2d1cb36325ea88ec3765599f709a",
          "transactionIndex": "0xaa",
          "logIndex": "0x1c2",
          "removed": false
        }
      ],
      "logsBloom": "0x04000004000000000000000000000410800000001001004020000020000000040000000402000000020000000000000000001000020c00400020000000040000000030000000000000000000000000000000000000040000000000400000202008000000020000000000800000000804000000010000000000001000000110000000000400000000000000040000001010020aa0000000000040000000000000000000000000001000000d00000000000000000000808000003000081000400000000080008000080000000000000000000000008000000100000100054060000000000000000000000000000010040000000000008000024000000000000200",
      "type": "0x2",
      "transactionHash": "0x4c487dabbeff45f3f8e0af590e716bb93d2e2d1cb36325ea88ec3765599f709a",
      "transactionIndex": "0xaa",
      "blockHash": "0xe3dd57dfb96eff4f293d6767e7c46cf793103b0711df353f1ddbb37fbd042dc4",
      "blockNumber": "0x1364916",
      "gasUsed": "0x5fda3",
      "effectiveGasPrice": "0x2ed65ef8a",
      "from": "0x8842fe65a7db9bb5de6d50e49af19496da09f9b5",
      "to": "0x705f82bb431fada1a0f11d7b77b3f0586c545cbc",
      "contractAddress": null
    }
  ],
  "libraries": [],
  "pending": [],
  "returns": {},
  "timestamp": 1721323333,
  "chain": 1,
  "commit": "5d1dd09"
}